{
  "_format": "hh-sol-artifact-1",
  "contractName": "EnigmaPaste",
  "sourceName": "contracts/EnigmaPaste.sol",
  "abi": [
    {
      "anonymous": false,
      "inputs": [
        {
          "indexed": false,
          "internalType": "address",
          "name": "owner",
          "type": "address"
        },
        {
          "indexed": false,
          "internalType": "uint256",
          "name": "pasteId",
          "type": "uint256"
        }
      ],
      "name": "PasteCreated",
      "type": "event"
    },
    {
      "anonymous": false,
      "inputs": [
        {
          "indexed": false,
          "internalType": "address",
          "name": "owner",
          "type": "address"
        },
        {
          "indexed": false,
          "internalType": "uint256",
          "name": "pasteId",
          "type": "uint256"
        }
      ],
      "name": "PasteDeleted",
      "type": "event"
    },
    {
      "inputs": [
        {
          "internalType": "string",
          "name": "_title",
          "type": "string"
        },
        {
          "internalType": "string",
          "name": "_language",
          "type": "string"
        },
        {
          "internalType": "string",
          "name": "_aurthor",
          "type": "string"
        },
        {
          "internalType": "uint256",
          "name": "_creationTime",
          "type": "uint256"
        },
        {
          "internalType": "string",
          "name": "_ipfsCid",
          "type": "string"
        },
        {
          "internalType": "bool",
          "name": "_isPrivate",
          "type": "bool"
        }
      ],
      "name": "createPaste",
      "outputs": [],
      "stateMutability": "nonpayable",
      "type": "function"
    },
    {
      "inputs": [
        {
          "internalType": "uint256",
          "name": "_pasteId",
          "type": "uint256"
        }
      ],
      "name": "deletePaste",
      "outputs": [],
      "stateMutability": "nonpayable",
      "type": "function"
    },
    {
      "inputs": [],
      "name": "getAllPastes",
      "outputs": [
        {
          "components": [
            {
              "internalType": "uint256",
              "name": "id",
              "type": "uint256"
            },
            {
              "internalType": "string",
              "name": "title",
              "type": "string"
            },
            {
              "internalType": "string",
              "name": "language",
              "type": "string"
            },
            {
              "internalType": "string",
              "name": "aurthor",
              "type": "string"
            },
            {
              "internalType": "uint256",
              "name": "creationTime",
              "type": "uint256"
            },
            {
              "internalType": "string",
              "name": "ipfsCid",
              "type": "string"
            },
            {
              "internalType": "bool",
              "name": "isPrivate",
              "type": "bool"
            }
          ],
          "internalType": "struct EnigmaPaste.Paste[]",
          "name": "",
          "type": "tuple[]"
        }
      ],
      "stateMutability": "view",
      "type": "function"
    },
    {
      "inputs": [
        {
          "internalType": "uint256",
          "name": "_pasteId",
          "type": "uint256"
        }
      ],
      "name": "getPaste",
      "outputs": [
        {
          "components": [
            {
              "internalType": "uint256",
              "name": "id",
              "type": "uint256"
            },
            {
              "internalType": "string",
              "name": "title",
              "type": "string"
            },
            {
              "internalType": "string",
              "name": "language",
              "type": "string"
            },
            {
              "internalType": "string",
              "name": "aurthor",
              "type": "string"
            },
            {
              "internalType": "uint256",
              "name": "creationTime",
              "type": "uint256"
            },
            {
              "internalType": "string",
              "name": "ipfsCid",
              "type": "string"
            },
            {
              "internalType": "bool",
              "name": "isPrivate",
              "type": "bool"
            }
          ],
          "internalType": "struct EnigmaPaste.Paste",
          "name": "",
          "type": "tuple"
        }
      ],
      "stateMutability": "view",
      "type": "function"
    },
    {
      "inputs": [],
      "name": "getPasteCount",
      "outputs": [
        {
          "internalType": "uint256",
          "name": "",
          "type": "uint256"
        }
      ],
      "stateMutability": "view",
      "type": "function"
    },
    {
      "inputs": [
        {
          "internalType": "uint256",
          "name": "k",
          "type": "uint256"
        }
      ],
      "name": "getRecentPastes",
      "outputs": [
        {
          "components": [
            {
              "internalType": "uint256",
              "name": "id",
              "type": "uint256"
            },
            {
              "internalType": "string",
              "name": "title",
              "type": "string"
            },
            {
              "internalType": "string",
              "name": "language",
              "type": "string"
            },
            {
              "internalType": "string",
              "name": "aurthor",
              "type": "string"
            },
            {
              "internalType": "uint256",
              "name": "creationTime",
              "type": "uint256"
            },
            {
              "internalType": "string",
              "name": "ipfsCid",
              "type": "string"
            },
            {
              "internalType": "bool",
              "name": "isPrivate",
              "type": "bool"
            }
          ],
          "internalType": "struct EnigmaPaste.Paste[]",
          "name": "",
          "type": "tuple[]"
        }
      ],
      "stateMutability": "view",
      "type": "function"
    }
  ],
  "bytecode": "0x608060405234801561001057600080fd5b50611dce806100206000396000f3fe608060405234801561001057600080fd5b50600436106100625760003560e01c80631de9bc88146100675780633c28b41b1461008557806369ba1f5a146100b55780637aae0e2d146100d3578063d9b8c74d146100ef578063f2b6028d1461010b575b600080fd5b61006f61013b565b60405161007c91906114e6565b60405180910390f35b61009f600480360381019061009a9190611548565b6105a7565b6040516100ac91906114e6565b60405180910390f35b6100bd610a1b565b6040516100ca9190611584565b60405180910390f35b6100ed60048036038101906100e89190611548565b610a62565b005b61010960048036038101906101049190611700565b610c42565b005b61012560048036038101906101209190611548565b610e80565b60405161013291906118ae565b60405180910390f35b60606000600160003373ffffffffffffffffffffffffffffffffffffffff1673ffffffffffffffffffffffffffffffffffffffff16815260200190815260200160002054905060008167ffffffffffffffff81111561019d5761019c6115a9565b5b6040519080825280602002602001820160405280156101d657816020015b6101c3611213565b8152602001906001900390816101bb5790505b509050600080600260003373ffffffffffffffffffffffffffffffffffffffff1673ffffffffffffffffffffffffffffffffffffffff1681526020019081526020016000205490505b60008111801561022e57508382105b1561059d5760008060003373ffffffffffffffffffffffffffffffffffffffff1673ffffffffffffffffffffffffffffffffffffffff168152602001908152602001600020600083815260200190815260200160002060000154111561058a576000803373ffffffffffffffffffffffffffffffffffffffff1673ffffffffffffffffffffffffffffffffffffffff16815260200190815260200160002060008281526020019081526020016000206040518060e001604052908160008201548152602001600182018054610302906118ff565b80601f016020809104026020016040519081016040528092919081815260200182805461032e906118ff565b801561037b5780601f106103505761010080835404028352916020019161037b565b820191906000526020600020905b81548152906001019060200180831161035e57829003601f168201915b50505050508152602001600282018054610394906118ff565b80601f01602080910402602001604051908101604052809291908181526020018280546103c0906118ff565b801561040d5780601f106103e25761010080835404028352916020019161040d565b820191906000526020600020905b8154815290600101906020018083116103f057829003601f168201915b50505050508152602001600382018054610426906118ff565b80601f0160208091040260200160405190810160405280929190818152602001828054610452906118ff565b801561049f5780601f106104745761010080835404028352916020019161049f565b820191906000526020600020905b81548152906001019060200180831161048257829003601f168201915b50505050508152602001600482015481526020016005820180546104c2906118ff565b80601f01602080910402602001604051908101604052809291908181526020018280546104ee906118ff565b801561053b5780601f106105105761010080835404028352916020019161053b565b820191906000526020600020905b81548152906001019060200180831161051e57829003601f168201915b505050505081526020016006820160009054906101000a900460ff16151515158152505083838061056b9061195f565b94508151811061057e5761057d6119a7565b5b60200260200101819052505b8080610595906119d6565b91505061021f565b5081935050505090565b60606105f282600160003373ffffffffffffffffffffffffffffffffffffffff1673ffffffffffffffffffffffffffffffffffffffff168152602001908152602001600020546111f9565b915060008267ffffffffffffffff8111156106105761060f6115a9565b5b60405190808252806020026020018201604052801561064957816020015b610636611213565b81526020019060019003908161062e5790505b509050600080600260003373ffffffffffffffffffffffffffffffffffffffff1673ffffffffffffffffffffffffffffffffffffffff1681526020019081526020016000205490505b6000811180156106a157508482105b15610a105760008060003373ffffffffffffffffffffffffffffffffffffffff1673ffffffffffffffffffffffffffffffffffffffff16815260200190815260200160002060008381526020019081526020016000206000015411156109fd576000803373ffffffffffffffffffffffffffffffffffffffff1673ffffffffffffffffffffffffffffffffffffffff16815260200190815260200160002060008281526020019081526020016000206040518060e001604052908160008201548152602001600182018054610775906118ff565b80601f01602080910402602001604051908101604052809291908181526020018280546107a1906118ff565b80156107ee5780601f106107c3576101008083540402835291602001916107ee565b820191906000526020600020905b8154815290600101906020018083116107d157829003601f168201915b50505050508152602001600282018054610807906118ff565b80601f0160208091040260200160405190810160405280929190818152602001828054610833906118ff565b80156108805780601f1061085557610100808354040283529160200191610880565b820191906000526020600020905b81548152906001019060200180831161086357829003601f168201915b50505050508152602001600382018054610899906118ff565b80601f01602080910402602001604051908101604052809291908181526020018280546108c5906118ff565b80156109125780601f106108e757610100808354040283529160200191610912565b820191906000526020600020905b8154815290600101906020018083116108f557829003601f168201915b5050505050815260200160048201548152602001600582018054610935906118ff565b80601f0160208091040260200160405190810160405280929190818152602001828054610961906118ff565b80156109ae5780601f10610983576101008083540402835291602001916109ae565b820191906000526020600020905b81548152906001019060200180831161099157829003601f168201915b505050505081526020016006820160009054906101000a900460ff1615151515815250508383806109de9061195f565b9450815181106109f1576109f06119a7565b5b60200260200101819052505b8080610a08906119d6565b915050610692565b508192505050919050565b6000600160003373ffffffffffffffffffffffffffffffffffffffff1673ffffffffffffffffffffffffffffffffffffffff16815260200190815260200160002054905090565b338160008060008473ffffffffffffffffffffffffffffffffffffffff1673ffffffffffffffffffffffffffffffffffffffff16815260200190815260200160002060008381526020019081526020016000206000015411610af9576040517f08c379a0000000000000000000000000000000000000000000000000000000008152600401610af090611a5c565b60405180910390fd5b6000803373ffffffffffffffffffffffffffffffffffffffff1673ffffffffffffffffffffffffffffffffffffffff1681526020019081526020016000206000848152602001908152602001600020600080820160009055600182016000610b619190611252565b600282016000610b719190611252565b600382016000610b819190611252565b6004820160009055600582016000610b999190611252565b6006820160006101000a81549060ff021916905550507f6a8dc5946caee93c0b786da2da66acdda080dd55da6c01bc836f4606f7eaa4293384604051610be0929190611abd565b60405180910390a1600160003373ffffffffffffffffffffffffffffffffffffffff1673ffffffffffffffffffffffffffffffffffffffff1681526020019081526020016000206000815480929190610c38906119d6565b9190505550505050565b60006001600260003373ffffffffffffffffffffffffffffffffffffffff1673ffffffffffffffffffffffffffffffffffffffff16815260200190815260200160002054610c909190611ae6565b90506040518060e001604052808281526020018881526020018781526020018681526020018581526020018481526020018315158152506000803373ffffffffffffffffffffffffffffffffffffffff1673ffffffffffffffffffffffffffffffffffffffff1681526020019081526020016000206000838152602001908152602001600020600082015181600001556020820151816001019081610d359190611cc6565b506040820151816002019081610d4b9190611cc6565b506060820151816003019081610d619190611cc6565b506080820151816004015560a0820151816005019081610d819190611cc6565b5060c08201518160060160006101000a81548160ff0219169083151502179055509050507f6a77152bc4322f4b16d2c835103c73bf5e82a2170a50dbb8f219451e8142d7293382604051610dd6929190611abd565b60405180910390a1600160003373ffffffffffffffffffffffffffffffffffffffff1673ffffffffffffffffffffffffffffffffffffffff1681526020019081526020016000206000815480929190610e2e9061195f565b919050555080600260003373ffffffffffffffffffffffffffffffffffffffff1673ffffffffffffffffffffffffffffffffffffffff1681526020019081526020016000208190555050505050505050565b610e88611213565b338260008060008473ffffffffffffffffffffffffffffffffffffffff1673ffffffffffffffffffffffffffffffffffffffff16815260200190815260200160002060008381526020019081526020016000206000015411610f1f576040517f08c379a0000000000000000000000000000000000000000000000000000000008152600401610f1690611a5c565b60405180910390fd5b6000803373ffffffffffffffffffffffffffffffffffffffff1673ffffffffffffffffffffffffffffffffffffffff16815260200190815260200160002060008581526020019081526020016000206040518060e001604052908160008201548152602001600182018054610f93906118ff565b80601f0160208091040260200160405190810160405280929190818152602001828054610fbf906118ff565b801561100c5780601f10610fe15761010080835404028352916020019161100c565b820191906000526020600020905b815481529060010190602001808311610fef57829003601f168201915b50505050508152602001600282018054611025906118ff565b80601f0160208091040260200160405190810160405280929190818152602001828054611051906118ff565b801561109e5780601f106110735761010080835404028352916020019161109e565b820191906000526020600020905b81548152906001019060200180831161108157829003601f168201915b505050505081526020016003820180546110b7906118ff565b80601f01602080910402602001604051908101604052809291908181526020018280546110e3906118ff565b80156111305780601f1061110557610100808354040283529160200191611130565b820191906000526020600020905b81548152906001019060200180831161111357829003601f168201915b5050505050815260200160048201548152602001600582018054611153906118ff565b80601f016020809104026020016040519081016040528092919081815260200182805461117f906118ff565b80156111cc5780601f106111a1576101008083540402835291602001916111cc565b820191906000526020600020905b8154815290600101906020018083116111af57829003601f168201915b505050505081526020016006820160009054906101000a900460ff16151515158152505092505050919050565b600081831115611209578161120b565b825b905092915050565b6040518060e001604052806000815260200160608152602001606081526020016060815260200160008152602001606081526020016000151581525090565b50805461125e906118ff565b6000825580601f10611270575061128f565b601f01602090049060005260206000209081019061128e9190611292565b5b50565b5b808211156112ab576000816000905550600101611293565b5090565b600081519050919050565b600082825260208201905092915050565b6000819050602082019050919050565b6000819050919050565b6112ee816112db565b82525050565b600081519050919050565b600082825260208201905092915050565b60005b8381101561132e578082015181840152602081019050611313565b60008484015250505050565b6000601f19601f8301169050919050565b6000611356826112f4565b61136081856112ff565b9350611370818560208601611310565b6113798161133a565b840191505092915050565b60008115159050919050565b61139981611384565b82525050565b600060e0830160008301516113b760008601826112e5565b50602083015184820360208601526113cf828261134b565b915050604083015184820360408601526113e9828261134b565b91505060608301518482036060860152611403828261134b565b915050608083015161141860808601826112e5565b5060a083015184820360a0860152611430828261134b565b91505060c083015161144560c0860182611390565b508091505092915050565b600061145c838361139f565b905092915050565b6000602082019050919050565b600061147c826112af565b61148681856112ba565b935083602082028501611498856112cb565b8060005b858110156114d457848403895281516114b58582611450565b94506114c083611464565b925060208a0199505060018101905061149c565b50829750879550505050505092915050565b600060208201905081810360008301526115008184611471565b905092915050565b6000604051905090565b600080fd5b600080fd5b611525816112db565b811461153057600080fd5b50565b6000813590506115428161151c565b92915050565b60006020828403121561155e5761155d611512565b5b600061156c84828501611533565b91505092915050565b61157e816112db565b82525050565b60006020820190506115996000830184611575565b92915050565b600080fd5b600080fd5b7f4e487b7100000000000000000000000000000000000000000000000000000000600052604160045260246000fd5b6115e18261133a565b810181811067ffffffffffffffff82111715611600576115ff6115a9565b5b80604052505050565b6000611613611508565b905061161f82826115d8565b919050565b600067ffffffffffffffff82111561163f5761163e6115a9565b5b6116488261133a565b9050602081019050919050565b82818337600083830152505050565b600061167761167284611624565b611609565b905082815260208101848484011115611693576116926115a4565b5b61169e848285611655565b509392505050565b600082601f8301126116bb576116ba61159f565b5b81356116cb848260208601611664565b91505092915050565b6116dd81611384565b81146116e857600080fd5b50565b6000813590506116fa816116d4565b92915050565b60008060008060008060c0878903121561171d5761171c611512565b5b600087013567ffffffffffffffff81111561173b5761173a611517565b5b61174789828a016116a6565b965050602087013567ffffffffffffffff81111561176857611767611517565b5b61177489828a016116a6565b955050604087013567ffffffffffffffff81111561179557611794611517565b5b6117a189828a016116a6565b94505060606117b289828a01611533565b935050608087013567ffffffffffffffff8111156117d3576117d2611517565b5b6117df89828a016116a6565b92505060a06117f089828a016116eb565b9150509295509295509295565b600060e08301600083015161181560008601826112e5565b506020830151848203602086015261182d828261134b565b91505060408301518482036040860152611847828261134b565b91505060608301518482036060860152611861828261134b565b915050608083015161187660808601826112e5565b5060a083015184820360a086015261188e828261134b565b91505060c08301516118a360c0860182611390565b508091505092915050565b600060208201905081810360008301526118c881846117fd565b905092915050565b7f4e487b7100000000000000000000000000000000000000000000000000000000600052602260045260246000fd5b6000600282049050600182168061191757607f821691505b60208210810361192a576119296118d0565b5b50919050565b7f4e487b7100000000000000000000000000000000000000000000000000000000600052601160045260246000fd5b600061196a826112db565b91507fffffffffffffffffffffffffffffffffffffffffffffffffffffffffffffffff820361199c5761199b611930565b5b600182019050919050565b7f4e487b7100000000000000000000000000000000000000000000000000000000600052603260045260246000fd5b60006119e1826112db565b9150600082036119f4576119f3611930565b5b600182039050919050565b600082825260208201905092915050565b7f496e76616c696420706173746520494400000000000000000000000000000000600082015250565b6000611a466010836119ff565b9150611a5182611a10565b602082019050919050565b60006020820190508181036000830152611a7581611a39565b9050919050565b600073ffffffffffffffffffffffffffffffffffffffff82169050919050565b6000611aa782611a7c565b9050919050565b611ab781611a9c565b82525050565b6000604082019050611ad26000830185611aae565b611adf6020830184611575565b9392505050565b6000611af1826112db565b9150611afc836112db565b9250828201905080821115611b1457611b13611930565b5b92915050565b60008190508160005260206000209050919050565b60006020601f8301049050919050565b600082821b905092915050565b600060088302611b7c7fffffffffffffffffffffffffffffffffffffffffffffffffffffffffffffffff82611b3f565b611b868683611b3f565b95508019841693508086168417925050509392505050565b6000819050919050565b6000611bc3611bbe611bb9846112db565b611b9e565b6112db565b9050919050565b6000819050919050565b611bdd83611ba8565b611bf1611be982611bca565b848454611b4c565b825550505050565b600090565b611c06611bf9565b611c11818484611bd4565b505050565b5b81811015611c3557611c2a600082611bfe565b600181019050611c17565b5050565b601f821115611c7a57611c4b81611b1a565b611c5484611b2f565b81016020851015611c63578190505b611c77611c6f85611b2f565b830182611c16565b50505b505050565b600082821c905092915050565b6000611c9d60001984600802611c7f565b1980831691505092915050565b6000611cb68383611c8c565b9150826002028217905092915050565b611ccf826112f4565b67ffffffffffffffff811115611ce857611ce76115a9565b5b611cf282546118ff565b611cfd828285611c39565b600060209050601f831160018114611d305760008415611d1e578287015190505b611d288582611caa565b865550611d90565b601f198416611d3e86611b1a565b60005b82811015611d6657848901518255600182019150602085019450602081019050611d41565b86831015611d835784890151611d7f601f891682611c8c565b8355505b6001600288020188555050505b50505050505056fea2646970667358221220ed22939c2bdbc6f7854bc035b70a9a3b78e7e756138a22bef0e58c14ed9d5b2a64736f6c63430008120033",
  "linkReferences": {},
  "deployedLinkReferences": {}
}